:040000004DEF09F0C7
:08000800046ED8CF05F0E0CF33
:1000100006F00001E9CF0CF0EACF07F0E1CF08F0DD
:10002000E2CF09F0D9CF0AF0DACF0BF0F3CF12F01C
:10003000F4CF13F0FACF14F0FBCF15F000C00EF0A0
:1000400001C00FF002C010F003C011F09DAA2CEF08
:1000500000F09EBA90EF00F00EC000F00FC001F06B
:1000600010C002F011C003F00CC0E9FF07C0EAFFA6
:10007000078E08C0E1FF09C0E2FF0AC0D9FF0BC02C
:10008000DAFF12C0F3FF13C0F4FF14C0FAFF15C06B
:10009000FBFF045006C0E0FF05C0D8FF100073311D
:1000A0005B765D3B73325B765D3B73335B765D3BCA
:1000B00073345B765D3B73355B765D3B73365B76A5
:1000C0005D3B73375B765D3B73385B765D3B745BA2
:1000D000635D3B72685B25255D3B7077725B765D87
:1000E0000D0A0000E10E0C016F6F5C0E6E6F150EB5
:1000F000006E002EFED700006E2F05D06F2F03D0AC
:10010000176A016A0AD09EAAF2D7AB50176EAE509A
:10011000016E17A202D0AB98AB8800019FEF00F0F0
:100120009D9A036A0B01B051B30FE96E0B0E0320C9
:10013000EA6EEACF6DFCE9CF6CFC0001D3D76DCC41
:10014000EAFF6CCCE9FF01C0EFFF0B01B02BB0510F
:100150000A08D8B4B06B9D8A9E9A00012CEF00F07B
:100160004C4353530D0A00000900F55211E0F6CF3D
:1001700022FCF7CF23FCF8CF24FCF5509EA8FED735
:10018000AD6E22CCF6FF23CCF7FF24CCF8FFECD7E2
:1001900099EF15F00900F6CF23FCF7CF24FCF8CF38
:1001A00025FCF5509EA8FED7AD6E23CCF6FF24CCDF
:1001B000F7FF25CCF8FF0C01222F01D002D000015F
:1001C000E9D70001000C9D9A9E0EF66E000EF76EA8
:1001D000000EF86E380E0C01226F0001DBDF250ED9
:1001E0009EA8FED7AD6ED80EF66E000EF76E000E0E
:1001F000F86E0A0E0C01226F0001CCDF9D8A9EEF83
:1002000015F00C015D51D8B471D0006E6151D8B4B5
:100210006DD0002604E3810E002668E204D07F0E34
:10022000005E64E363E05ECC65FC6251651B5E8F3B
:10023000628F60516403F4CF67FC5F516303F4CFB6
:1002400003F0F3CF66FC6403F3506727F450662392
:10025000000E032260516303F3506727F4506623B6
:10026000000E026A032202225E516403F3506627E5
:10027000F4500322000E02225E516303F350032662
:10028000F4500222000E016A012260516203F35011
:100290006627F4500322000E022201225F516203FE
:1002A000F3500326F4500222000E01225E51620335
:1002B000F3500226F4500122002A01BE05D0663711
:1002C0000336023601360006000E66AF0AD0032A56
:1002D00002220122015005E1025003E1035001E135
:1002E000002A65BF018E65AF019E04D0006A016AD5
:1002F000026A036A0001000C0C015D51B6085D6FD3
:10030000036A5ECC61FC5E8FD8905E335F336033EE
:1003100003320232013200325D2FF6D761AF0BD0CB
:10032000001E011E021E031E002AD8B4012AD8B4E2
:10033000022AD8B4032A000109EF02F0006A016A18
:10034000026A036A0C01656B666B676B686B6451CC
:100350006311621161112CE0200E696FD8905D3736
:100360005E375F37603765376637673768376451A0
:10037000685D08E16351675D05E16251665D02E118
:100380006151655D0FE36151655F6251D8A0623DC7
:10039000665F6351D8A0633D675F6451D8A0643D38
:1003A000685FD8800036013602360336692FD6D70B
:1003B0000C0EEA6E650EE96E0001000CE9500C01AE
:1003C000556F5451576F1BE053CC60FC52CC5FFC0F
:1003D00051CC5EFC50CC5DFC646B636B200E626F95
:1003E000820E616F00010DDF03C053FC02C052FC9E
:1003F00001C051FC00C050FC0C01572FE5D753CC75
:1004000060FC52CC5FFC51CC5EFC50CC5DFC00012A
:1004100073D703C053FC02C052FC01C051FC00C0A2
:1004200050FC0C0153AF0DD05507558B501F511F79
:10043000521F531F502BD8B4512BD8B4522BD8B4C1
:10044000532B3B0E5C6F9A0E5B6FCA0E5A6F596B43
:100450000A0E576F5451D8B4552B53CC60FC52CC74
:100460005FFC51CC5EFC50CC5DFC5CCC64FC5BCC96
:1004700063FC5ACC62FC59CC61FC00015FDF015087
:10048000EFCF50FCECCF51FCECCF52FCECCF53FC47
:10049000005213E10C015429575DD8A402D0000189
:1004A0000CD055510DE00F0B575D01E03CE255BFFC
:1004B0003AD055BD05D0200E31D0200E0C01551775
:1004C00055AB0DD0559B5451D8A455070050556FCE
:1004D0002D0E9EA8FED7AD6E5551006E556B545132
:1004E000575D0BE10050556F2E0E9EA8FED7AD6EE6
:1004F0005551006E200E5517000E300E55AB0ED024
:10050000559B5451D8A455070050556F2D0E9EA8E9
:10051000FED7AD6E5551006E556B300E0026005063
:100520009EA8FED7AD6E5CCC60FC5BCC5FFC5ACC69
:100530005EFC59CC5DFC646B636B626B0A0E616F91
:100540000001FCDE03C05CFC02C05BFC01C05AFC85
:1005500000C059FC0C01572F80D70001000C040E7D
:100560000C012225E96E000E2321EA6EEFCF24FC58
:10057000ECCF25FCECCF26FCECCF27FC080E222587
:10058000E96E000E2321EA6EEFCF28FCECCF29FCA8
:10059000ECCF2AFCECCF2BFC0C0E2225E96E000ED2
:1005A0002321EA6EEFCF2CFCECCF2DFCECCF2EFC00
:1005B000ECCF2FFC100E2225E96E000E2321EA6EEF
:1005C000EFCF30FCECCF31FCECCF32FCECCF33FC86
:1005D000140E2225E96E000E2321EA6EEFCF34FCC3
:1005E000ECCF35FCECCF36FCECCF37FC180E2225D7
:1005F000E96E000E2321EA6EEFCF38FCECCF39FC18
:10060000ECCF3AFCECCF3BFC1C0E2225E96E000E31
:100610002321EA6EEFCF3CFCECCF3DFCECCF3EFC5F
:10062000ECCF3FFC200E2225E96E000E2321EA6E5E
:10063000EFCF40FCECCF41FCECCF42FCECCF43FCD5
:10064000240E2225E96E000E2321EA6EEFCF44FC32
:10065000ECCF45FCECCF46FCECCF47FC280E222526
:10066000E96E000E2321EA6EEFCF48FCECCF49FC87
:10067000ECCF4AFCECCF4BFC22CCE9FF23CCEAFFC9
:10068000EFCF4CFCECCF4DFCECCF4EFCECCF4FFC55
:10069000890EE96E27CC53FC26CC52FC25CC51FCAC
:1006A00024CC50FC040E546F000188DE3B0E9EA843
:1006B000FED7AD6E890EE96E2BCC53FC2ACC52FCD2
:1006C00029CC51FC28CC50FC040E0C01546F0001C5
:1006D00075DE3B0E9EA8FED7AD6E890EE96E2FCC5F
:1006E00053FC2ECC52FC2DCC51FC2CCC50FC040ED7
:1006F0000C01546F000162DE3B0E9EA8FED7AD6E6A
:10070000890EE96E33CC53FC32CC52FC31CC51FC17
:1007100030CC50FC040E0C01546F00014FDE3B0E38
:100720009EA8FED7AD6E890EE96E37CC53FC36CC51
:1007300052FC35CC51FC34CC50FC040E0C01546FEF
:1007400000013CDE3B0E9EA8FED7AD6E890EE96E21
:100750003BCC53FC3ACC52FC39CC51FC38CC50FC4D
:10076000040E0C01546F000129DE3B0E9EA8FED73B
:10077000AD6E890EE96E3FCC53FC3ECC52FC3DCCB5
:1007800051FC3CCC50FC040E0C01546F000116DEF1
:100790003B0E9EA8FED7AD6E890EE96E43CC53FC8E
:1007A00042CC52FC41CC51FC40CC50FC040E0C011C
:1007B000546F000103DE3B0E9EA8FED7AD6E020E05
:1007C000E96E47CC53FC46CC52FC45CC51FC44CCA2
:1007D00050FC010E0C01546F0001F0DD3B0E9EA891
:1007E000FED7AD6E020EE96E4BCC53FC4ACC52FCE8
:1007F00049CC51FC48CC50FC010E0C01546F000157
:10080000DDDD3B0E9EA8FED7AD6E890EE96E4FCCA6
:1008100053FC4ECC52FC4DCC51FC4CCC50FC030E46
:100820000C01546F0001CADD0D0E9EA8FED7AD6EFF
:100830000A0E9EA8FED7AD6EA9EF15F00C0EEA6E5B
:10084000260EE96EEF500EE0030E016E006A002ED8
:10085000FED7012EFBD73C0E006E002EFED700D037
:10086000EF2EF2D7000C000E016EC250C30B011028
:10087000C26E010E0C01266F0001E0DF25CC03F0F3
:100880000C0124CCE9FF25CCEAFFEF50040DF35016
:10089000036A2225E96E23510320EA6EC282C2B2A6
:1008A000FED7C4CF03F0026A036AC3CFEFFFC4CF01
:1008B000ECFF02C0ECFF03C0ECFF24CCE9FF25CC29
:1008C000EAFFEF2A25CC03F024CCE9FF25CCEAFF90
:1008D000EF50010805E224CCE9FF25CCEAFFEF6ADE
:1008E0000001B8EF15F0040E016EC250C30B0110E9
:1008F000C26E010E0C01266F0001A0DF25CC03F0B3
:100900000C0124CCE9FF25CCEAFFEF50040DF35095
:10091000036A2225E96E23510320EA6EC282C2B225
:10092000FED7C4CF03F0026A036AC3CFEFFFC4CF80
:10093000ECFF02C0ECFF03C0ECFF24CCE9FF25CCA8
:10094000EAFFEF2A25CC03F024CCE9FF25CCEAFF0F
:10095000EF50310805E224CCE9FF25CCEAFFEF6A2D
:100960000001C3EF15F0080E016EC250C30B011059
:10097000C26E010E0C01266F000160DF25CC03F072
:100980000C0124CCE9FF25CCEAFFEF50040DF35015
:10099000036A2225E96E23510320EA6EC282C2B2A5
:1009A000FED7C4CF03F0026A036AC3CFEFFFC4CF00
:1009B000ECFF02C0ECFF03C0ECFF24CCE9FF25CC28
:1009C000EAFFEF2A25CC03F024CCE9FF25CCEAFF8F
:1009D000EF50310805E224CCE9FF25CCEAFFEF6AAD
:1009E0000001CEEF15F00C0E016EC250C30B0110CA
:1009F000C26E010E0C01266F000120DF25CC03F032
:100A00000C0124CCE9FF25CCEAFFEF50040DF35094
:100A1000036A2225E96E23510320EA6EC282C2B224
:100A2000FED7C4CF03F0026A036AC3CFEFFFC4CF7F
:100A3000ECFF02C0ECFF03C0ECFF24CCE9FF25CCA7
:100A4000EAFFEF2A25CC03F024CCE9FF25CCEAFF0E
:100A5000EF504F0805E224CCE9FF25CCEAFFEF6A0E
:100A60000001DAEF15F0100E016EC250C30B011039
:100A7000C26E010E0C01266F0001E0DE25CC03F0F2
:100A80000C0124CCE9FF25CCEAFFEF50040DF35014
:100A9000036A2225E96E23510320EA6EC282C2B2A4
:100AA000FED7C4CF03F0026A036AC3CFEFFFC4CFFF
:100AB000ECFF02C0ECFF03C0ECFF24CCE9FF25CC27
:100AC000EAFFEF2A25CC03F024CCE9FF25CCEAFF8E
:100AD000EF504F0805E224CCE9FF25CCEAFFEF6A8E
:100AE0000001E6EF15F0140E016EC250C30B0110A9
:100AF000C26E010E0C01266F0001A0DE25CC03F0B2
:100B00000C0124CCE9FF25CCEAFFEF50040DF35093
:100B1000036A2225E96E23510320EA6EC282C2B223
:100B2000FED7C4CF03F0026A036AC3CFEFFFC4CF7E
:100B3000ECFF02C0ECFF03C0ECFF24CCE9FF25CCA6
:100B4000EAFFEF2A25CC03F024CCE9FF25CCEAFF0D
:100B5000EF504F0805E224CCE9FF25CCEAFFEF6A0D
:100B60000001F2EF15F0180E016EC250C30B011018
:100B7000C26E010E0C01266F000160DE25CC03F071
:100B80000C0124CCE9FF25CCEAFFEF50040DF35013
:100B9000036A2225E96E23510320EA6EC282C2B2A3
:100BA000FED7C4CF03F0026A036AC3CFEFFFC4CFFE
:100BB000ECFF02C0ECFF03C0ECFF24CCE9FF25CC26
:100BC000EAFFEF2A25CC03F024CCE9FF25CCEAFF8D
:100BD000EF504F0805E224CCE9FF25CCEAFFEF6A8D
:100BE0000001FEEF15F01C0E016EC250C30B011088
:100BF000C26E010E0C01266F000120DE25CC03F031
:100C00000C0124CCE9FF25CCEAFFEF50040DF35092
:100C1000036A2225E96E23510320EA6EC282C2B222
:100C2000FED7C4CF03F0026A036AC3CFEFFFC4CF7D
:100C3000ECFF02C0ECFF03C0ECFF24CCE9FF25CCA5
:100C4000EAFFEF2A25CC03F024CCE9FF25CCEAFF0C
:100C5000EF504F0805E224CCE9FF25CCEAFFEF6A0C
:100C600000010AEF16F0200E016EC250C30B0110F6
:100C7000C26E010E0C01266F0001E0DD25CC03F0F1
:100C80000C0124CCE9FF25CCEAFFEF50040DF35012
:100C9000036A2225E96E23510320EA6EC282C2B2A2
:100CA000FED7C4CF03F0026A036AC3CFEFFFC4CFFD
:100CB000ECFF02C0ECFF03C0ECFF24CCE9FF25CC25
:100CC000EAFFEF2A25CC03F024CCE9FF25CCEAFF8C
:100CD000EF504F0805E224CCE9FF25CCEAFFEF6A8C
:100CE000000116EF16F0240E016EC250C30B011066
:100CF000C26E010E0C01266F0001A0DD25CC03F0B1
:100D00000C0124CCE9FF25CCEAFFEF50040DF35091
:100D1000036A2225E96E23510320EA6EC282C2B221
:100D2000FED7C4CF03F0026A036AC3CFEFFFC4CF7C
:100D3000ECFF02C0ECFF03C0ECFF24CCE9FF25CCA4
:100D4000EAFFEF2A25CC03F024CCE9FF25CCEAFF0B
:100D5000EF504F0805E224CCE9FF25CCEAFFEF6A0B
:100D6000000122EF16F0280E016EC250C30B0110D5
:100D7000C26E010E0C01266F000160DD25CC03F070
:100D80000C0124CCE9FF25CCEAFFEF50040DF35011
:100D9000036A2225E96E23510320EA6EC282C2B2A1
:100DA000FED7C4CF03F0026A036AC3CFEFFFC4CFFC
:100DB000ECFF02C0ECFF03C0ECFF24CCE9FF25CC24
:100DC000EAFFEF2A25CC03F024CCE9FF25CCEAFF8B
:100DD000EF504F0805E224CCE9FF25CCEAFFEF6A8B
:100DE00000012EEF16F00C01296B286B276B266B88
:100DF000256B2451255D1BE22551040DF350036A38
:100E00002225E96E23510320EA6EEFCF00F0ECCFEC
:100E100001F0ECCF02F0ECCF03F000502627015098
:100E200027230250282303502923252BE2D724CC43
:100E300000F0016A026A036A03C02DFC02C02CFCA8
:100E400001C02BFC24CC2AFC29CC60FC28CC5FFC04
:100E500027CC5EFC26CC5DFC03C064FC02C063FCB6
:100E600001C062FC24CC61FC00019EEC01F003C0D7
:100E700029FC02C028FC01C027FC00C026FC0C0194
:100E800026CC01F027CC02F00001000C8E0E006E83
:100E900023CC01F022CC02F0036A015209E102C026
:100EA00001F0026A080E005E015202E1006A08D0F9
:100EB000D89001BE04D0023601360006F9D7019E53
:100EC000000C800ED8A202D00C012B1B0C01306B41
:100ED000316B27CC2FFC2B512F1B2651D8B4DFD0E0
:100EE0002E6F006E2A51D8B4E3D02E5FD8B483D0D1
:100EF0003EE32BCC34FC348F2CCC33FC2DCC32FC99
:100F0000316BD89034333333323331332E2FF8D71B
:100F10002FAF03D03081E0D030912E9130890C0E6C
:100F2000EA6E290EE96EEBD030992FBF0AD02EA1C0
:100F300013D03433333332333133002AD8B4C7D0EB
:100F40000BD034BF0CD0D8903137323733373437E9
:100F50000006D8B4BCD0F5D7308D6DD0309D27CCED
:100F60002FFC27AF02D0348FABD0349FA9D02ACC2E
:100F70002EFC2ACC00F026512E5F27CC34FC348F77
:100F800028CC33FC29CC32FC316BD890343333334A
:100F9000323331332E2FF8D72FAF03D030839CD08C
:100FA00030932E91308B0C0EEA6E2D0EE96EA7D089
:100FB000309B2FBF0AD02EA113D0343333333233BA
:100FC0003133002AD8B483D00BD034BF0CD0D890A2
:100FD00031373237333734370006D8B478D0F5D7C5
:100FE000308F29D0309F2BCC2FFC2BAF02D0348FE9
:100FF00067D0349F65D02BCC34FC348F2CCC33FCA1
:101000002DCC32FC2FAF04D0349F308565D0309585
:10101000316B2E910C0EEA6E290EE96E70D02FBF47
:101020001CD027CC2FFC2EA106D0343333333233DF
:101030003133002A4CE031AF0BD0322B09E1332B96
:1010400007E1342B05E1343333333233002A3FE0F8
:1010500030BD84D730BFC6D71CD0800E341B34AF10
:1010600004D03AD02BCC2FFC0AD027CC2FFC345301
:1010700006E1335304E1325302E1006A21D034BF68
:1010800008D0D8903137323733373437002EF7D77E
:101090001ED02FAF02D0348F13D0349F11D02ACC62
:1010A00000F02BCC34FC2CCC33FC2DCC32FC08D003
:1010B00026CC00F027CC34FC28CC33FC29CC32FCE5
:1010C00034CC01F033CC02F032CC03F034D0006ADF
:1010D000016A026A036A2FD0316B321F331F341F3B
:1010E000311F312B05E1322B03E1332B01E1342B8E
:1010F00030B112D730B354D730B589D7B3D7EF500A
:10110000322705E3332B03E1342BD8B42E81ED5283
:10111000EF50332703E3342BD8B42E81ED52EF5038
:10112000EFBE01D0800A3427D8B02E8130B9FCD66A
:1011300030BB3ED774D70001000C0C012651D8B447
:10114000A5D0326F2A51D8B4A1D0325F05E37F0E0B
:101150003227D8B09BD006D0810E325FD8A096D06F
:10116000D8B494D032CC00F0016A026A036A316BC1
:1011700027CC30FC308F28CC2FFC29CC2EFC190E2C
:10118000326F2D512E5F0DE2010E2F5F0AE2305FAC
:1011900008E2315F06E2312B302B2F2B2D512E2709
:1011A00028D02C512F5F12E2010E305F0FE2315F29
:1011B0000DE2312B302B2C512F272D512E2719E3E7
:1011C0002F2B17E1302B15E1312B13D02B51800938
:1011D000305F0EE2010E315F0BE2312B2B518009A3
:1011E00030272C512F27E9E3302BE7E1312BE5D7CE
:1011F0000380322F01D00BD0D8902E372F373037C5
:101200003137D8900336023601363337BAD733A197
:1012100006D0D890013202320332333302D00006B6
:1012200035E033BF1ED0D8902E372F3730373137C7
:101230002D512E5F07E2010E2F5F04E2305F02E2C4
:10124000315F1AE32C512F5F05E2010E305F02E29D
:10125000315F12E32B518009305F03E2010E315FF1
:101260000BE3032A09E1022A07E1012A05E1002A2A
:101270000DE001320232033227CC32FC2B51321BFB
:1012800032AF02D0018E06D0019E04D0006A016AFE
:10129000026A036A0001B2EF17F0F86AD09E078E67
:1012A000EA6AE96AB886150EAF6E000EB06EA60E39
:1012B000AC6E900EAB6EC150C00B0F09C16E070E25
:1012C000B46E176A186A196A1A6A1B6A1C6A1D6A60
:1012D0001E6A1F6A206A216A226A236A246A256AB2
:1012E000266A276A286A296A2A6A2B6A2C6A2D6A62
:1012F0002E6A2F6A306A316A326A336A346A356A12
:10130000366A376A386A396A3A6A3B6A3C6A3D6AC1
:101310003E6A3F6A406A416A426A436A446A456A71
:10132000466A476A486A496A4A6A4B6A4C6A4D6A21
:101330004E6A4F6A506A516A526A536A546A556AD1
:10134000566A576A586A596A5A6A5B6A5C6A5D6A81
:101350005E6A5F6A606B616B626B636B646B656B2B
:10136000666B676B686B696B6A6B6B6B6C6B6D6BD9
:101370006E6B6F6B706B716B726B736B746B756B89
:10138000766B776B786B796B7A6B7B6B7C6B7D6B39
:101390007E6B7F6B806B816B826B836B846B856BE9
:1013A000866B876B886B896B8A6B8B6B8C6B8D6B99
:1013B0008E6B8F6B906B916B926B936B946B956B49
:1013C000966B976B986B996B9A6B9B6B9C6B9D6BF9
:1013D0009E6B9F6BA06BA16BA26BA36BA46BA56BA9
:1013E000A66BA76BA86BA96BAA6BAB6BAC6BAD6B59
:1013F000AE6BAF6BB06BB16BB26BB36BB46BB56B09
:10140000B66BB76BB86BB96BBA6BBB6BBC6BBD6BB8
:10141000BE6BBF6BC06BC16BC26BC36BC46BC56B68
:10142000C66BC76BC86BC96BCA6BCB6BCC6BCD6B18
:10143000CE6BCF6BD06BD16BD26BD36BD46BD56BC8
:10144000D66BD76BD86BD96BDA6BDB6BDC6BDD6B78
:10145000DE6BDF6BE06BE16BE26BE36BE46BE56B28
:10146000E66BE76BE86BE96BEA6BEB6BEC6BED6BD8
:10147000EE6BEF6BF06BF16BF26BF36BF46BF56B88
:10148000F66BF76BF86BF96BFA6BFB6BFC6BFD6B38
:10149000FE6BFF6B0101006B016B026B036B046B56
:1014A000056B066B076B086B096B0A6B0B6B0C6BA0
:1014B0000D6B0E6B0F6B106B116B126B136B146B50
:1014C000156B166B176B186B196B1A6B1B6B1C6B00
:1014D0001D6B1E6B1F6B206B216B226B236B246BB0
:1014E000256B266B276B286B296B2A6B2B6B2C6B60
:1014F0002D6B2E6B2F6B306B316B326B336B346B10
:10150000356B366B376B386B396B3A6B3B6B3C6BBF
:101510003D6B3E6B3F6B406B416B426B436B446B6F
:10152000456B466B476B486B496B4A6B4B6B4C6B1F
:101530004D6B4E6B4F6B506B516B526B536B546BCF
:10154000556B566B576B586B596B5A6B5B6B5C6B7F
:101550005D6B5E6B5F6B606B616B626B636B646B2F
:10156000656B666B676B686B696B6A6B6B6B6C6BDF
:101570006D6B6E6B6F6B706B716B726B736B746B8F
:10158000756B766B776B786B796B7A6B7B6B7C6B3F
:101590007D6B7E6B7F6B806B816B826B836B846BEF
:1015A000856B866B876B886B896B8A6B8B6B8C6B9F
:1015B0008D6B8E6B8F6B906B916B926B936B946B4F
:1015C000956B966B976B986B996B9A6B9B6B9C6BFF
:1015D0009D6B9E6B9F6BA06BA16BA26BA36BA46BAF
:1015E000A56BA66BA76BA86BA96BAA6BAB6BAC6B5F
:1015F000AD6BAE6BAF6BB06BB16BB26BB36BB46B0F
:10160000B56BB66BB76BB86BB96BBA6BBB6BBC6BBE
:10161000BD6BBE6BBF6BC06BC16BC26BC36BC46B6E
:10162000C56BC66BC76BC86BC96BCA6BCB6BCC6B1E
:10163000CD6BCE6BCF6BD06BD16BD26BD36BD46BCE
:10164000D56BD66BD76BD86BD96BDA6BDB6BDC6B7E
:10165000DD6BDE6BDF6BE06BE16BE26BE36BE46B2E
:10166000E56BE66BE76BE86BE96BEA6BEB6BEC6BDE
:10167000ED6BEE6BEF6BF06BF16BF26BF36BF46B8E
:10168000F56BF66BF76BF86BF96BFA6BFB6BFC6B3E
:10169000FD6BFE6BFF6B0201006B016B026B036B5A
:1016A000046B056B066B076B086B096B0A6B0B6BA6
:1016B0000C6B0D6B0E6B0F6B106B116B126B136B56
:1016C000146B156B166B176B186B196B1A6B1B6B06
:1016D0001C6B1D6B1E6B1F6B206B216B226B236BB6
:1016E000246B256B266B276B286B296B2A6B2B6B66
:1016F0002C6B2D6B2E6B2F6B306B316B326B336B16
:10170000346B356B366B376B386B396B3A6B3B6BC5
:101710003C6B3D6B3E6B3F6B406B416B426B436B75
:10172000446B456B466B476B486B496B4A6B4B6B25
:101730004C6B4D6B4E6B4F6B506B516B526B536BD5
:10174000546B556B566B576B586B596B5A6B5B6B85
:101750005C6B5D6B5E6B5F6B606B616B626B636B35
:10176000646B656B666B676B686B696B6A6B6B6BE5
:101770006C6B6D6B6E6B6F6B706B716B726B736B95
:10178000746B756B766B776B786B796B7A6B7B6B45
:101790007C6B7D6B7E6B7F6B806B816B826B836BF5
:1017A000846B856B866B876B886B896B8A6B8B6BA5
:1017B0008C6B8D6B8E6B8F6B906B916B926B936B55
:1017C000946B956B966B976B986B996B9A6B9B6B05
:1017D0009C6B9D6B9E6B9F6BA06BA16BA26BA36BB5
:1017E000A46BA56BA66BA76BA86BA96BAA6BAB6B65
:1017F000AC6BAD6BAE6BAF6BB06BB16BB26BB36B15
:10180000B46BB56BB66BB76BB86BB96BBA6BBB6BC4
:10181000BC6BBD6BBE6BBF6BC06BC16BC26BC36B74
:10182000C46BC56BC66BC76BC86BC96BCA6BCB6B24
:10183000CC6BCD6BCE6BCF6BD06BD16BD26BD36BD4
:10184000D46BD56BD66BD76BD86BD96BDA6BDB6B84
:10185000DC6BDD6BDE6BDF6BE06BE16BE26BE36B34
:10186000E46BE56BE66BE76BE86BE96BEA6BEB6BE4
:10187000EC6BED6BEE6BEF6BF06BF16BF26BF36B94
:10188000F46BF56BF66BF76BF86BF96BFA6BFB6B44
:10189000FC6BFD6BFE6BFF6B0301006B016B026B5E
:1018A000036B046B056B066B076B086B096B0A6BAC
:1018B0000B6B0C6B0D6B0E6B0F6B106B116B126B5C
:1018C000136B146B156B166B176B186B196B1A6B0C
:1018D0001B6B1C6B1D6B1E6B1F6B206B216B226BBC
:1018E000236B246B256B266B276B286B296B2A6B6C
:1018F0002B6B2C6B2D6B2E6B2F6B306B316B326B1C
:10190000336B346B356B366B376B386B396B3A6BCB
:101910003B6B3C6B3D6B3E6B3F6B406B416B426B7B
:10192000436B446B456B466B476B486B496B4A6B2B
:101930004B6B4C6B4D6B4E6B4F6B506B516B526BDB
:10194000536B546B556B566B576B586B596B5A6B8B
:101950005B6B5C6B5D6B5E6B5F6B606B616B626B3B
:10196000636B646B656B666B676B686B696B6A6BEB
:101970006B6B6C6B6D6B6E6B6F6B706B716B726B9B
:10198000736B746B756B766B776B786B796B7A6B4B
:101990007B6B7C6B7D6B7E6B7F6B806B816B826BFB
:1019A000836B846B856B866B876B886B896B8A6BAB
:1019B0008B6B8C6B8D6B8E6B8F6B906B916B926B5B
:1019C000936B946B956B966B976B986B996B9A6B0B
:1019D0009B6B9C6B9D6B9E6B9F6BA06BA16BA26BBB
:1019E000A36BA46BA56BA66BA76BA86BA96BAA6B6B
:1019F000AB6BAC6BAD6BAE6BAF6BB06BB16BB26B1B
:101A0000B36BB46BB56BB66BB76BB86BB96BBA6BCA
:101A1000BB6BBC6BBD6BBE6BBF6BC06BC16BC26B7A
:101A2000C36BC46BC56BC66BC76BC86BC96BCA6B2A
:101A3000CB6BCC6BCD6BCE6BCF6BD06BD16BD26BDA
:101A4000D36BD46BD56BD66BD76BD86BD96BDA6B8A
:101A5000DB6BDC6BDD6BDE6BDF6BE06BE16BE26B3A
:101A6000E36BE46BE56BE66BE76BE86BE96BEA6BEA
:101A7000EB6BEC6BED6BEE6BEF6BF06BF16BF26B9A
:101A8000F36BF46BF56BF66BF76BF86BF96BFA6B4A
:101A9000FB6BFC6BFD6BFE6BFF6B0401006B016B62
:101AA000026B036B046B056B066B076B086B096BB2
:101AB0000A6B0B6B0C6B0D6B0E6B0F6B106B116B62
:101AC000126B136B146B156B166B176B186B196B12
:101AD0001A6B1B6B1C6B1D6B1E6B1F6B206B216BC2
:101AE000226B236B246B256B266B276B286B296B72
:101AF0002A6B2B6B2C6B2D6B2E6B2F6B306B316B22
:101B0000326B336B346B356B366B376B386B396BD1
:101B10003A6B3B6B3C6B3D6B3E6B3F6B406B416B81
:101B2000426B436B446B456B466B476B486B496B31
:101B30004A6B4B6B4C6B4D6B4E6B4F6B506B516BE1
:101B4000526B536B546B556B566B576B586B596B91
:101B50005A6B5B6B5C6B5D6B5E6B5F6B606B616B41
:101B6000626B636B646B656B666B676B686B696BF1
:101B70006A6B6B6B6C6B6D6B6E6B6F6B706B716BA1
:101B8000726B736B746B756B766B776B786B796B51
:101B90007A6B7B6B7C6B7D6B7E6B7F6B806B816B01
:101BA000826B836B846B856B866B876B886B896BB1
:101BB0008A6B8B6B8C6B8D6B8E6B8F6B906B916B61
:101BC000926B936B946B956B966B976B986B996B11
:101BD0009A6B9B6B9C6B9D6B9E6B9F6BA06BA16BC1
:101BE000A26BA36BA46BA56BA66BA76BA86BA96B71
:101BF000AA6BAB6BAC6BAD6BAE6BAF6BB06BB16B21
:101C0000B26BB36BB46BB56BB66BB76BB86BB96BD0
:101C1000BA6BBB6BBC6BBD6BBE6BBF6BC06BC16B80
:101C2000C26BC36BC46BC56BC66BC76BC86BC96B30
:101C3000CA6BCB6BCC6BCD6BCE6BCF6BD06BD16BE0
:101C4000D26BD36BD46BD56BD66BD76BD86BD96B90
:101C5000DA6BDB6BDC6BDD6BDE6BDF6BE06BE16B40
:101C6000E26BE36BE46BE56BE66BE76BE86BE96BF0
:101C7000EA6BEB6BEC6BED6BEE6BEF6BF06BF16BA0
:101C8000F26BF36BF46BF56BF66BF76BF86BF96B50
:101C9000FA6BFB6BFC6BFD6BFE6BFF6B0501006B66
:101CA000016B026B036B046B056B066B076B086BB8
:101CB000096B0A6B0B6B0C6B0D6B0E6B0F6B106B68
:101CC000116B126B136B146B156B166B176B186B18
:101CD000196B1A6B1B6B1C6B1D6B1E6B1F6B206BC8
:101CE000216B226B236B246B256B266B276B286B78
:101CF000296B2A6B2B6B2C6B2D6B2E6B2F6B306B28
:101D0000316B326B336B346B356B366B376B386BD7
:101D1000396B3A6B3B6B3C6B3D6B3E6B3F6B406B87
:101D2000416B426B436B446B456B466B476B486B37
:101D3000496B4A6B4B6B4C6B4D6B4E6B4F6B506BE7
:101D4000516B526B536B546B556B566B576B586B97
:101D5000596B5A6B5B6B5C6B5D6B5E6B5F6B606B47
:101D6000616B626B636B646B656B666B676B686BF7
:101D7000696B6A6B6B6B6C6B6D6B6E6B6F6B706BA7
:101D8000716B726B736B746B756B766B776B786B57
:101D9000796B7A6B7B6B7C6B7D6B7E6B7F6B806B07
:101DA000816B826B836B846B856B866B876B886BB7
:101DB000896B8A6B8B6B8C6B8D6B8E6B8F6B906B67
:101DC000916B926B936B946B956B966B976B986B17
:101DD000996B9A6B9B6B9C6B9D6B9E6B9F6BA06BC7
:101DE000A16BA26BA36BA46BA56BA66BA76BA86B77
:101DF000A96BAA6BAB6BAC6BAD6BAE6BAF6BB06B27
:101E0000B16BB26BB36BB46BB56BB66BB76BB86BD6
:101E1000B96BBA6BBB6BBC6BBD6BBE6BBF6BC06B86
:101E2000C16BC26BC36BC46BC56BC66BC76BC86B36
:101E3000C96BCA6BCB6BCC6BCD6BCE6BCF6BD06BE6
:101E4000D16BD26BD36BD46BD56BD66BD76BD86B96
:101E5000D96BDA6BDB6BDC6BDD6BDE6BDF6BE06B46
:101E6000E16BE26BE36BE46BE56BE66BE76BE86BF6
:101E7000E96BEA6BEB6BEC6BED6BEE6BEF6BF06BA6
:101E8000F16BF26BF36BF46BF56BF66BF76BF86B56
:101E9000F96BFA6BFB6BFC6BFD6BFE6BFF6B06016A
:101EA000006B016B026B036B046B056B066B076BBE
:101EB000086B096B0A6B0B6B0C6B0D6B0E6B0F6B6E
:101EC000106B116B126B136B146B156B166B176B1E
:101ED000186B196B1A6B1B6B1C6B1D6B1E6B1F6BCE
:101EE000206B216B226B236B246B256B266B276B7E
:101EF000286B296B2A6B2B6B2C6B2D6B2E6B2F6B2E
:101F0000306B316B326B336B346B356B366B376BDD
:101F1000386B396B3A6B3B6B3C6B3D6B3E6B3F6B8D
:101F2000406B416B426B436B446B456B466B476B3D
:101F3000486B496B4A6B4B6B4C6B4D6B4E6B4F6BED
:101F4000506B516B526B536B546B556B566B576B9D
:101F5000586B596B5A6B5B6B5C6B5D6B5E6B5F6B4D
:101F6000606B616B626B636B646B656B666B676BFD
:101F7000686B696B6A6B6B6B6C6B6D6B6E6B6F6BAD
:101F8000706B716B726B736B746B756B766B776B5D
:101F9000786B796B7A6B7B6B7C6B7D6B7E6B7F6B0D
:101FA000806B816B826B836B846B856B866B876BBD
:101FB000886B896B8A6B8B6B8C6B8D6B8E6B8F6B6D
:101FC000906B916B926B936B946B956B966B976B1D
:101FD000986B996B9A6B9B6B9C6B9D6B9E6B9F6BCD
:101FE000A06BA16BA26BA36BA46BA56BA66BA76B7D
:101FF000A86BA96BAA6BAB6BAC6BAD6BAE6BAF6B2D
:10200000B06BB16BB26BB36BB46BB56BB66BB76BDC
:10201000B86BB96BBA6BBB6BBC6BBD6BBE6BBF6B8C
:10202000C06BC16BC26BC36BC46BC56BC66BC76B3C
:10203000C86BC96BCA6BCB6BCC6BCD6BCE6BCF6BEC
:10204000D06BD16BD26BD36BD46BD56BD66BD76B9C
:10205000D86BD96BDA6BDB6BDC6BDD6BDE6BDF6B4C
:10206000E06BE16BE26BE36BE46BE56BE66BE76BFC
:10207000E86BE96BEA6BEB6BEC6BED6BEE6BEF6BAC
:10208000F06BF16BF26BF36BF46BF56BF66BF76B5C
:10209000F86BF96BFA6BFB6BFC6BFD6BFE6BFF6B0C
:1020A0000701006B016B026B036B046B056B066B26
:1020B000076B086B096B0A6B0B6B0C6B0D6B0E6B74
:1020C0000F6B106B116B126B136B146B156B166B24
:1020D000176B186B196B1A6B1B6B1C6B1D6B1E6BD4
:1020E0001F6B206B216B226B236B246B256B266B84
:1020F000276B286B296B2A6B2B6B2C6B2D6B2E6B34
:102100002F6B306B316B326B336B346B356B366BE3
:10211000376B386B396B3A6B3B6B3C6B3D6B3E6B93
:102120003F6B406B416B426B436B446B456B466B43
:10213000476B486B496B4A6B4B6B4C6B4D6B4E6BF3
:102140004F6B506B516B526B536B546B556B566BA3
:10215000576B586B596B5A6B5B6B5C6B5D6B5E6B53
:102160005F6B606B616B626B636B646B656B666B03
:10217000676B686B696B6A6B6B6B6C6B6D6B6E6BB3
:102180006F6B706B716B726B736B746B756B766B63
:10219000776B786B796B7A6B7B6B7C6B7D6B7E6B13
:1021A0007F6B806B816B826B836B846B856B866BC3
:1021B000876B886B896B8A6B8B6B8C6B8D6B8E6B73
:1021C0008F6B906B916B926B936B946B956B966B23
:1021D000976B986B996B9A6B9B6B9C6B9D6B9E6BD3
:1021E0009F6BA06BA16BA26BA36BA46BA56BA66B83
:1021F000A76BA86BA96BAA6BAB6BAC6BAD6BAE6B33
:10220000AF6BB06BB16BB26BB36BB46BB56BB66BE2
:10221000B76BB86BB96BBA6BBB6BBC6BBD6BBE6B92
:10222000BF6BC06BC16BC26BC36BC46BC56BC66B42
:10223000C76BC86BC96BCA6BCB6BCC6BCD6BCE6BF2
:10224000CF6BD06BD16BD26BD36BD46BD56BD66BA2
:10225000D76BD86BD96BDA6BDB6BDC6BDD6BDE6B52
:10226000DF6BE06BE16BE26BE36BE46BE56BE66B02
:10227000E76BE86BE96BEA6BEB6BEC6BED6BEE6BB2
:10228000EF6BF06BF16BF26BF36BF46BF56BF66B62
:10229000F76BF86BF96BFA6BFB6BFC6BFD6BFE6B12
:1022A000FF6B0801006B016B026B036B046B056B2A
:1022B000066B076B086B096B0A6B0B6B0C6B0D6B7A
:1022C0000E6B0F6B106B116B126B136B146B156B2A
:1022D000166B176B186B196B1A6B1B6B1C6B1D6BDA
:1022E0001E6B1F6B206B216B226B236B246B256B8A
:1022F000266B276B286B296B2A6B2B6B2C6B2D6B3A
:102300002E6B2F6B306B316B326B336B346B356BE9
:10231000366B376B386B396B3A6B3B6B3C6B3D6B99
:102320003E6B3F6B406B416B426B436B446B456B49
:10233000466B476B486B496B4A6B4B6B4C6B4D6BF9
:102340004E6B4F6B506B516B526B536B546B556BA9
:10235000566B576B586B596B5A6B5B6B5C6B5D6B59
:102360005E6B5F6B606B616B626B636B646B656B09
:10237000666B676B686B696B6A6B6B6B6C6B6D6BB9
:102380006E6B6F6B706B716B726B736B746B756B69
:10239000766B776B786B796B7A6B7B6B7C6B7D6B19
:1023A0007E6B7F6B806B816B826B836B846B856BC9
:1023B000866B876B886B896B8A6B8B6B8C6B8D6B79
:1023C0008E6B8F6B906B916B926B936B946B956B29
:1023D000966B976B986B996B9A6B9B6B9C6B9D6BD9
:1023E0009E6B9F6BA06BA16BA26BA36BA46BA56B89
:1023F000A66BA76BA86BA96BAA6BAB6BAC6BAD6B39
:10240000AE6BAF6BB06BB16BB26BB36BB46BB56BE8
:10241000B66BB76BB86BB96BBA6BBB6BBC6BBD6B98
:10242000BE6BBF6BC06BC16BC26BC36BC46BC56B48
:10243000C66BC76BC86BC96BCA6BCB6BCC6BCD6BF8
:10244000CE6BCF6BD06BD16BD26BD36BD46BD56BA8
:10245000D66BD76BD86BD96BDA6BDB6BDC6BDD6B58
:10246000DE6BDF6BE06BE16BE26BE36BE46BE56B08
:10247000E66BE76BE86BE96BEA6BEB6BEC6BED6BB8
:10248000EE6BEF6BF06BF16BF26BF36BF46BF56B68
:10249000F66BF76BF86BF96BFA6BFB6BFC6BFD6B18
:1024A000FE6BFF6B0901006B016B026B036B046B2E
:1024B000056B066B076B086B096B0A6B0B6B0C6B80
:1024C0000D6B0E6B0F6B106B116B126B136B146B30
:1024D000156B166B176B186B196B1A6B1B6B1C6BE0
:1024E0001D6B1E6B1F6B206B216B226B236B246B90
:1024F000256B266B276B286B296B2A6B2B6B2C6B40
:102500002D6B2E6B2F6B306B316B326B336B346BEF
:10251000356B366B376B386B396B3A6B3B6B3C6B9F
:102520003D6B3E6B3F6B406B416B426B436B446B4F
:10253000456B466B476B486B496B4A6B4B6B4C6BFF
:102540004D6B4E6B4F6B506B516B526B536B546BAF
:10255000556B566B576B586B596B5A6B5B6B5C6B5F
:102560005D6B5E6B5F6B606B616B626B636B646B0F
:10257000656B666B676B686B696B6A6B6B6B6C6BBF
:102580006D6B6E6B6F6B706B716B726B736B746B6F
:10259000756B766B776B786B796B7A6B7B6B7C6B1F
:1025A0007D6B7E6B7F6B806B816B826B836B846BCF
:1025B000856B866B876B886B896B8A6B8B6B8C6B7F
:1025C0008D6B8E6B8F6B906B916B926B936B946B2F
:1025D000956B966B976B986B996B9A6B9B6B9C6BDF
:1025E0009D6B9E6B9F6BA06BA16BA26BA36BA46B8F
:1025F000A56BA66BA76BA86BA96BAA6BAB6BAC6B3F
:10260000AD6BAE6BAF6BB06BB16BB26BB36BB46BEE
:10261000B56BB66BB76BB86BB96BBA6BBB6BBC6B9E
:10262000BD6BBE6BBF6BC06BC16BC26BC36BC46B4E
:10263000C56BC66BC76BC86BC96BCA6BCB6BCC6BFE
:10264000CD6BCE6BCF6BD06BD16BD26BD36BD46BAE
:10265000D56BD66BD76BD86BD96BDA6BDB6BDC6B5E
:10266000DD6BDE6BDF6BE06BE16BE26BE36BE46B0E
:10267000E56BE66BE76BE86BE96BEA6BEB6BEC6BBE
:10268000ED6BEE6BEF6BF06BF16BF26BF36BF46B6E
:10269000F56BF66BF76BF86BF96BFA6BFB6BFC6B1E
:1026A000FD6BFE6BFF6B0A01006B016B026B036B32
:1026B000046B056B066B076B086B096B0A6B0B6B86
:1026C0000C6B0D6B0E6B0F6B106B116B126B136B36
:1026D000146B156B166B176B186B196B1A6B1B6BE6
:1026E0001C6B1D6B1E6B1F6B206B216B226B236B96
:1026F000246B256B266B276B286B296B2A6B2B6B46
:102700002C6B2D6B2E6B2F6B306B316B326B336BF5
:10271000346B356B366B376B386B396B3A6B3B6BA5
:102720003C6B3D6B3E6B3F6B406B416B426B436B55
:10273000446B456B466B476B486B496B4A6B4B6B05
:102740004C6B4D6B4E6B4F6B506B516B526B536BB5
:10275000546B556B566B576B586B596B5A6B5B6B65
:102760005C6B5D6B5E6B5F6B606B616B626B636B15
:10277000646B656B666B676B686B696B6A6B6B6BC5
:102780006C6B6D6B6E6B6F6B706B716B726B736B75
:10279000746B756B766B776B786B796B7A6B7B6B25
:1027A0007C6B7D6B7E6B7F6B806B816B826B836BD5
:1027B000846B856B866B876B886B896B8A6B8B6B85
:1027C0008C6B8D6B8E6B8F6B906B916B926B936B35
:1027D000946B956B966B976B986B996B9A6B9B6BE5
:1027E0009C6B9D6B9E6B9F6BA06BA16BA26BA36B95
:1027F000A46BA56BA66BA76BA86BA96BAA6BAB6B45
:10280000AC6BAD6BAE6BAF6BB06BB16BB26BB36BF4
:10281000B46BB56BB66BB76BB86BB96BBA6BBB6BA4
:10282000BC6BBD6BBE6BBF6BC06BC16BC26BC36B54
:10283000C46BC56BC66BC76BC86BC96BCA6BCB6B04
:10284000CC6BCD6BCE6BCF6BD06BD16BD26BD36BB4
:10285000D46BD56BD66BD76BD86BD96BDA6BDB6B64
:10286000DC6BDD6BDE6BDF6BE06BE16BE26BE36B14
:10287000E46BE56BE66BE76BE86BE96BEA6BEB6BC4
:10288000EC6BED6BEE6BEF6BF06BF16BF26BF36B74
:10289000F46BF56BF66BF76BF86BF96BFA6BFB6B24
:1028A000FC6BFD6BFE6BFF6B0B01006B016B026B36
:1028B000036B046B056B066B076B086B096B0A6B8C
:1028C0000B6B0C6B0D6B0E6B0F6B106B116B126B3C
:1028D000136B146B156B166B176B186B196B1A6BEC
:1028E0001B6B1C6B1D6B1E6B1F6B206B216B226B9C
:1028F000236B246B256B266B276B286B296B2A6B4C
:102900002B6B2C6B2D6B2E6B2F6B306B316B326BFB
:10291000336B346B356B366B376B386B396B3A6BAB
:102920003B6B3C6B3D6B3E6B3F6B406B416B426B5B
:10293000436B446B456B466B476B486B496B4A6B0B
:102940004B6B4C6B4D6B4E6B4F6B506B516B526BBB
:10295000536B546B556B566B576B586B596B5A6B6B
:102960005B6B5C6B5D6B5E6B5F6B606B616B626B1B
:10297000636B646B656B666B676B686B696B6A6BCB
:102980006B6B6C6B6D6B6E6B6F6B706B716B726B7B
:10299000736B746B756B766B776B786B796B7A6B2B
:1029A0007B6B7C6B7D6B7E6B7F6B806B816B826BDB
:1029B000836B846B856B866B876B886B896B8A6B8B
:1029C0008B6B8C6B8D6B8E6B8F6B906B916B926B3B
:1029D000936B946B956B966B976B986B996B9A6BEB
:1029E0009B6B9C6B9D6B9E6B9F6BA06BA16BA26B9B
:1029F000A36BA46BA56BA66BA76BA86BA96BAA6B4B
:102A0000AB6BAC6BAD6BAE6BAF6BB06BB16BB26BFA
:102A1000B36BB46BB56BB66BB76BB86BB96BBA6BAA
:102A2000BB6BBC6BBD6BBE6BBF6BC06BC16BC26B5A
:102A3000C36BC46BC56BC66BC76BC86BC96BCA6B0A
:102A4000CB6BCC6BCD6BCE6BCF6BD06BD16BD26BBA
:102A5000D36BD46BD56BD66BD76BD86BD96BDA6B6A
:102A6000DB6BDC6BDD6BDE6BDF6BE06BE16BE26B1A
:102A7000E36BE46BE56BE66BE76BE86BF19E9D8ABD
:102A8000C00EF212B06BB16BC150C00BC16EC05022
:102A9000C00B0709C06EC09EC280E96BEA6BEB6B8E
:102AA000EC6BED6BEE6BEF6BF06BF16BF26BF36B52
:102AB0000C010D6B0C6B0B6B7E0E0A6F116B106BA8
:102AC000480E0F6F850E0E6FD10E156F220E146F0C
:102AD0001B0E136F7C0E126F930E196F3B0E186F47
:102AE0001D0E176F860E166F0B01B151B05D35E0EC
:102AF000B05303E1090EB26F03D0010EB05DB26FA7
:102B0000036AB251B30FE96E0B0E0320EA6EEF5069
:102B1000690A000105E0010A0EE00F0A11E01BD06E
:102B20009D9A600EF66E010EF76E000EF86EB4EF11
:102B300000F09D8A10D09D9AE3EF00F09D8A0BD0A3
:102B40009D9A0B0E0C01236FBD0E226F0001AFEF9B
:102B500002F09D8A00D0B0CBB1FB0C01236B180EA4
:102B6000226F0B0E256FF30E246F000133EF04F07C
:102B70000C01236B200E226F0B0E256FF10E246FBC
:102B8000000173EF04F00C01236BE80E226F0B0EB3
:102B9000256FF20E246F0001B3EF04F0010E0C015B
:102BA000236FB00E226F0B0E256FE90E246F00010C
:102BB000F3EF04F0020E0C01236FF00E226F0B0EE8
:102BC000256FEA0E246F000133EF05F0040E0C01AF
:102BD000236F300E226F0B0E256FEB0E246F00015A
:102BE00073EF05F0050E0C01236F700E226F0B0EB4
:102BF000256FEC0E246F0001B3EF05F0060E0C01FB
:102C0000236FB00E226F0B0E256FED0E246F0001A7
:102C1000F3EF05F0070E0C01236FF00E226F0B0E81
:102C2000256FEE0E246F000133EF06F0090E0C0144
:102C3000236F300E226F0B0E256FEF0E246F0001F5
:102C400073EF06F00A0E0C01236F700E226F0B0E4D
:102C5000256FF00E246F0001B3EF06F00C01236B1B
:102C6000180E226F020E246F0001F3EC06F002C072
:102C7000F5FB01C0F4FB0C01236B200E226F320E1A
:102C8000246F0001F3EC06F002C0F7FB01C0F6FB75
:102C90000C01236BE80E226F320E246F0001F3EC5F
:102CA00006F002C0F9FB01C0F8FB010E0C01236F16
:102CB000B00E226F500E246F0001F3EC06F002C03C
:102CC000FBFB01C0FAFB020E0C01236FF00E226F1A
:102CD000500E246F0001F3EC06F002C0FDFB01C0B2
:102CE000FCFB040E0C01236F300E226F500E246F7C
:102CF0000001F3EC06F002C0FFFB01C0FEFB050E75
:102D00000C01236F700E226F500E246F0001F3EC44
:102D100006F002C001FC01C000FC060E0C01236F8E
:102D2000B00E226F500E246F0001F3EC06F002C0CB
:102D300003FC01C002FC070E0C01236FF00E226F92
:102D4000500E246F0001F3EC06F002C005FC01C038
:102D500004FC090E0C01236F300E226F500E246FFD
:102D60000001F3EC06F002C007FC01C006FC0A0EED
:102D70000C01236F700E226F500E246F0001F3ECD4
:102D800006F002C009FC01C008FCAE0E0C011D6F6C
:102D9000470E1C6F510E1B6F700E1A6FAE0E216F17
:102DA000470E206F510E1F6F800E1E6FF5CB23FC58
:102DB000F4CB22FC000146EC07F000C022FC01C06D
:102DC00023FC02C024FC03C025FC03C060FC02C03D
:102DD0005FFC01C05EFC00C05DFC1DCC64FC1CCC33
:102DE00063FC1BCC62FC1ACC61FC01EC01F000C05E
:102DF00022FC01C023FC02C024FC03C025FC03C04C
:102E000060FC02C05FFC01C05EFC00C05DFC650EA2
:102E10000C01646F420E636F7E0E626F7F0E616FF6
:102E2000000101EC01F003C0C0FB02C0BFFB01C008
:102E3000BEFB00C0BDFBF7CB23FCF6CB22FC46EC6F
:102E400007F000C022FC01C023FC02C024FC03C028
:102E500025FC03C060FC02C05FFC01C05EFC00C03A
:102E60005DFC1DCC64FC1CCC63FC1BCC62FC1ACC4E
:102E700061FC01EC01F000C022FC01C023FC02C097
:102E800024FC03C025FCD88203C029FC02C028FC16
:102E900001C027FC00C026FC0DCC2DFC0CCC2CFC6A
:102EA0000BCC2BFC0ACC2AFC61EC07F000C022FC06
:102EB00001C023FC02C024FC03C025FC03C060FC4D
:102EC00002C05FFC01C05EFC00C05DFC11CC64FC74
:102ED00010CC63FC0FCC62FC0ECC61FC01EC01F069
:102EE00003C0E4FB02C0E3FB01C0E2FB00C0E1FB66
:102EF000F9CB23FCF8CB22FC46EC07F000C022FC07
:102F000001C023FC02C024FC03C025FC03C060FCFC
:102F100002C05FFC01C05EFC00C05DFC1DCC64FC17
:102F20001CCC63FC1BCC62FC1ACC61FC01EC01F0F4
:102F300000C022FC01C023FC02C024FC03C025FC0D
:102F400003C029FC02C028FC01C027FC00C026FCED
:102F500021CC2DFC20CC2CFC1FCC2BFC1ECC2AFC25
:102F60009DEF08F000C022FC01C023FC02C024FC3D
:102F700003C025FCD88203C029FC02C028FC01C084
:102F800027FC00C026FC15CC2DFC14CC2CFC13CC4B
:102F90002BFC12CC2AFC61EC07F000C022FC01C023
:102FA00023FC02C024FC03C025FC03C060FC02C05B
:102FB0005FFC01C05EFC00C05DFC19CC64FC18CC59
:102FC00063FC17CC62FC16CC61FC01EC01F003C081
:102FD000E8FB02C0E7FB01C0E6FB00C0E5FBFBCB62
:102FE00023FCFACB22FC46EC07F000C022FC01C017
:102FF00023FC02C024FC03C025FC03C060FC02C00B
:103000005FFC01C05EFC00C05DFC1DCC64FC1CCC00
:1030100063FC1BCC62FC1ACC61FC01EC01F003C028
:10302000D4FB02C0D3FB01C0D2FB00C0D1FBFDCB5F
:1030300023FCFCCB22FC46EC07F000C022FC01C0C4
:1030400023FC02C024FC03C025FC03C060FC02C0BA
:103050005FFC01C05EFC00C05DFC1DCC64FC1CCCB0
:1030600063FC1BCC62FC1ACC61FC01EC01F003C0D8
:10307000D8FB02C0D7FB01C0D6FB00C0D5FBFFCBFD
:1030800023FCFECB22FC46EC07F000C022FC01C072
:1030900023FC02C024FC03C025FC03C060FC02C06A
:1030A0005FFC01C05EFC00C05DFC1DCC64FC1CCC60
:1030B00063FC1BCC62FC1ACC61FC01EC01F003C088
:1030C000DCFB02C0DBFB01C0DAFB00C0D9FB01CC9A
:1030D00023FC00CC22FC46EC07F000C022FC01C01F
:1030E00023FC02C024FC03C025FC03C060FC02C01A
:1030F0005FFC01C05EFC00C05DFC1DCC64FC1CCC10
:1031000063FC1BCC62FC1ACC61FC01EC01F003C037
:10311000E0FB02C0DFFB01C0DEFB00C0DDFB03CC37
:1031200023FC02CC22FC46EC07F000C022FC01C0CC
:1031300023FC02C024FC03C025FC03C060FC02C0C9
:103140005FFC01C05EFC00C05DFC1DCC64FC1CCCBF
:1031500063FC1BCC62FC1ACC61FC01EC01F003C0E7
:10316000C4FB02C0C3FB01C0C2FB00C0C1FB05CC55
:1031700023FC04CC22FC46EC07F000C022FC01C07A
:1031800023FC02C024FC03C025FC03C060FC02C079
:103190005FFC01C05EFC00C05DFC1DCC64FC1CCC6F
:1031A00063FC1BCC62FC1ACC61FC01EC01F003C097
:1031B000CCFB02C0CBFB01C0CAFB00C0C9FB07CCE3
:1031C00023FC06CC22FC46EC07F000C022FC01C028
:1031D00023FC02C024FC03C025FC03C060FC02C029
:1031E0005FFC01C05EFC00C05DFC1DCC64FC1CCC1F
:1031F00063FC1BCC62FC1ACC61FC01EC01F003C047
:10320000D0FB02C0CFFB01C0CEFB00C0CDFB09CC80
:1032100023FC08CC22FC46EC07F000C022FC01C0D5
:1032200023FC02C024FC03C025FC03C060FC02C0D8
:103230005FFC01C05EFC00C05DFC1DCC64FC1CCCCE
:1032400063FC1BCC62FC1ACC61FC01EC01F003C0F6
:10325000C8FB02C0C7FB01C0C6FB00C0C5FB0C0118
:0432600043D4030050
:020000040030CA
:0E00000000C21E1E0086B1003FC03FE03F4020
:00000001FF
;PIC18F4685
;CRC=BB5D  CREATED="12-lug-20 12.27"
